:030000000200AA51
:0C00AA00787FE4F6D8FD75810B0200039E
:10008C00444154452032303030203038203032005A
:0E009C0048454C4C4F205752495052494E0097
:0D005F00C2A68F807F057E0012006CD2A724
:10006C00E4FDFCC3ED9FEC9E5015E4FBFA0BBB00CA
:0F007C00010AEB646E4A70F50DBD00010C80E4C3
:01008B002252
:0800C000C2A512005FC2A722D5
:0800C800D2A512005FC2A722BD
:0A00B6007F381200C07F0C0200C06A
:100003001200B67F811200C0E4F508F509E50990F6
:10001300008C93FF1200C87F647E0012006C0509F8
:10002300E50970020508C3940FE508940040DE7FDC
:10003300C21200C0E4F50AF50BE50B90009C93FF98
:100043001200C87F647E0012006C050BE50B700282
:0B005300050AC3940DE50A940040DE8E
:01005E00227F
:00000001FF
