:0300000002023BBE
:0C023B00787FE4F6D8FD7581150201A65D
:080247007EBDDBE7E7DBBD7EB5
:0601CF00F5807FF47E01C3
:1001D500E4FDFCC3ED9FEC9E5015E4FBFA0BBB0060
:0F01E500010AEB646E4A70F50DBD00010C80E459
:0101F40022E8
:1000F900E4F510F5117580FEE4F512F5131201D13E
:10010900AF807801EF08800123D8FDF5800513E55C
:100119001370020512C39408E512940040DFE4F558
:1001290014F515AF807801EF08800103D8FD12019D
:10013900CF0515E51570020514C39408E51494005C
:1001490040E10511E51170020510C39403E510940F
:040159000040A2229E
:1001F500E4F510F5117580F01201D17580FF12013B
:10020500D50511E51170020510C39405E51094009C
:0302150040E322A1
:10021800E4F510F5117580AA1201D1758055120107
:10022800D50511E51170020510C39405E510940079
:0302380040E3227E
:10015D0078087C007D007BFF7A0279477E007F085E
:10016D001200D3E4F512F513E4F510F5117408251A
:10017D0011F8E61201CF0511E51170020510C394B7
:10018D0007E510940040E60513E51370020512C350
:08019D009403E512940040D028
:0101A5002237
:1001A600AFA053070FEF24F9601A24FC601124FE58
:1001B60060081470EB1200F980E61201F580E11276
:0901C600021880DC12015D80D7F3
:10000300E709F608DFFA8046E709F208DFFA803EDF
:1000130088828C83E709F0A3DFFA8032E309F608CC
:10002300DFFA8078E309F208DFFA807088828C8334
:10003300E309F0A3DFFA806489828A83E0A3F608E8
:10004300DFFA805889828A83E0A3F208DFFA804CC2
:1000530080D280FA80C680D4806980F28033801099
:1000630080A680EA809A80A880DA80E280CA803302
:1000730089828A83ECFAE493A3C8C582C8CCC5837A
:10008300CCF0A3C8C582C8CCC583CCDFE9DEE7804A
:100093000D89828A83E493A3F608DFF9ECFAA9F0C9
:1000A300EDFB2289828A83ECFAE0A3C8C582C8CC1F
:1000B300C583CCF0A3C8C582C8CCC583CCDFEADE38
:1000C300E880DB89828A83E493A3F208DFF980CC9A
:1000D30088F0EF60010E4E60C388F0ED2402B40493
:1000E3000050B9F582EB2402B4040050AF2323453A
:0600F3008223900053730C
:00000001FF
