:0300000002017585
:0C017500787FE4F6D8FD75811702013E8A
:100165003F065B4F666D7D077F6F777C395E7971E2
:06011800D2A1C2A17F018B
:10011E00E4FDFCC3ED9FEC9E5015E4FBFA0BBB0017
:0F012E00010AEB646E4A70F50DBD00010C80E410
:01013D00229F
:10015500758901758C4CE4F58AD2AFD2A9D28C226F
:03000B000200A54B
:1000A500C0E0C0F0C0D0758C4C758A000508E50825
:1000B500C3941440247508000509E509943C4019CA
:1000C500750900050BE50B943C400E750B00050A00
:1000D500E50A94184003750A00E50975F00A84F5E8
:1000E5000DE50975F00A8485F00CE50B75F00A84B9
:1000F500F511E50B75F00A8485F010E50A75F00A2F
:1001050084F50FE50A75F00A8485F00ED0D0D0F09D
:03011500D0E03205
:10000E008D13A9037580FFD2A1C2A1EF9001659354
:10001E00F580D2A0C2A07580FED2A1C2A17F017EC2
:10002E000012011E7580FFD2A1C2A1E51393F580C7
:10003E00D2A0C2A07580FD1201187580FFD2A1C298
:10004E00A1E993F580D2A0C2A07580FB12011875AC
:10005E0080FFD2A1C2A1E51593F580D2A0C2A075F2
:10006E0080F71201187580FFD2A1C2A1E51693F593
:10007E0080D2A0C2A07580EF1201187580FFD2A1A8
:10008E00C2A1E51793F580D2A0C2A07580DFD2A1E0
:07009E00C2A17F0102011E57
:10013E00120155851015850D16850C17AB11AD0ED8
:07014E00AF0F12000E80EC60
:00000001FF
