:030000000200CC2F
:0C00CC00787FE4F6D8FD75810B0200A5DA
:1000BC003F065B4F666D7D077F6F777C395E79718C
:10006C00E4FDFCC3ED9FEC9E5015E4FBFA0BBB00CA
:0F007C00010AEB646E4A70F50DBD00010C80E4C3
:01008B002252
:10000E00A9057580FFD2A1C2A1EF9000BC93F58027
:10001E00D2A0C2A07580FED2A1C2A17F017E001225
:10002E00006C7580FFD2A1C2A1E993F580D2A0C267
:0D003E00A07580FDD2A1C2A17F0102006C5F
:10008C00758901758C4CE4F58AD2AFD2A9D28CF566
:09009C0008F50BF50A75093C2278
:03000B0002004BA5
:10004B00C0E0C0D0758C4C758AD00508E508B401AA
:10005B00057508001509E5097002C28CD0D0D0E0F7
:01006B003262
:1000A50012008CE50975F00A84FFE50975F00A84EC
:0700B500ADF012000E80EC1B
:00000001FF
