:030000000200CC2F
:0C00CC00787FE4F6D8FD75810B0200A5DA
:1000BC003F065B4F666D7D077F6F777C395E79718C
:10006D00E4FDFCC3ED9FEC9E5015E4FBFA0BBB00C9
:0F007D00010AEB646E4A70F50DBD00010C80E4C2
:01008C002251
:10000E00A9057580FFD2A1C2A1EF9000BC93F58027
:10001E00D2A0C2A07580FED2A1C2A17F017E001225
:10002E00006D7580FFD2A1C2A1E993F580D2A0C266
:0D003E00A07580FDD2A1C2A17F0102006D5E
:10008D00758901758C4CE4F58AD2AFD2A9D28CF565
:08009D0008F50BF50AF5092234
:03000B0002004BA5
:10004B00C0E0C0D0758C4C758AD00508E508B401AA
:10005B00057508000509E509B43C02C28CD0D0D067
:02006B00E03281
:1000A50012008DE50975F00A84FFE50975F00A84EB
:0700B500ADF012000E80EC1B
:00000001FF
