:030000000200EF0C
:0C00EF00787FE4F6D8FD75810C0200C893
:1000DF003F065B4F666D7D077F6F777C395E797169
:10008F00E4FDFCC3ED9FEC9E5015E4FBFA0BBB00A7
:0F009F00010AEB646E4A70F50DBD00010C80E4A0
:0100AE00222F
:10005200A9057580FFD2A1C2A1EF9000DF93F580C0
:10006200D2A0C2A07580FED2A1C2A17F017E0012E1
:10007200008F7580FFD2A1C2A1E993F580D2A0C200
:0D008200A07580FDD2A1C2A17F0102008FF8
:1000AF00758901758C4CE4F58AD2AFD2A9D28CF543
:0900BF0009F50CF50B750A1E226F
:03000B0002000EE2
:10000E00C0E0C0F0C0D0758C4C758AD00509E509EA
:10001E00B41405750900150AE50A70210508E508EE
:10002E0075F00384E5F014600C14600E2402700D5C
:10003E00750A1E8008750A038003750A14D0D0D085
:04004E00F0D0E032DC
:1000C8001200AFE50A75F00A84FFE50A75F00A84A4
:0700D800ADF012005280ECB4
:00000001FF
