:03000000020238C1
:0C023800787FE4F6D8FD7581190200D330
:0A0244003F065B4F666D7D077F6F7C
:1001DC007580FFD2A1C2A1758006D2A0C2A0758085
:0701EC00C0D2A1C2A180E90D
:1001F3007580FFD2A1C2A175805BD2A0C2A0E4F535
:0702030080D2A1C2A180E935
:10020A007580FFD2A1C2A175806DD2A0C2A07580EF
:07021A00F0D2A1C2A180E9AE
:100221007580FFD2A1C2A175803FD2A0C2A0758006
:07023100EFD2A1C2A180E998
:10013B008C0C8D0D8A0E8B0F12019F7580FED2A138
:10014B00C2A17580FFD2A1C2A17444250DF58274A2
:10015B0002350C1201AE7580FDD2A1C2A17580FFD4
:10016B00D2A1C2A17444250FF5827402350E12017F
:10017B00AE7580FBD2A1C2A17580FFD2A1C2A174C2
:10018B00442511F582740235101201AE7580F7D239
:04019B00A1C2A1223A
:100003008C0C8D0D8A0E8B0F12019F7580FED2A171
:10001300C2A17580FFD2A1C2A17444250DF58274DB
:1000230002350C1201AE7580FDD2A1C2A17580FF0D
:10003300D2A1C2A17444250FF5827402350E1201B8
:10004300AE7580FBD2A1C2A17580FFD2A1C2A174FB
:10005300442511F582740235101201AE7580F7D272
:10006300A1C2A17580FFD2A1C2A174442513F58258
:10007300740235121201AE7580EFD2A1C2A1758050
:10008300FFD2A1C2A174442515F58274023514125E
:1000930001AE7580DFD2A1C2A17580FFD2A1C2A13A
:1000A30074442517F582740235161201AE7580BFAC
:1000B300D2A1C2A17580FFD2A1C2A174442519F5B2
:1000C30082740235181201AE75807FD2A1C2A122BB
:10019F007580FFD2A1C2A174442FF58274023EF57F
:0D01AF0083E493F580D2A0C2A07F057E00FE
:1001BC00E4FDFCC3ED9FEC9E5015E4FBFA0BBB0079
:0F01CC00010AEB646E4A70F50DBD00010C80E472
:0101DB002201
:1000D300750800750905E50870FCE509146033141B
:1000E300603514603714603914603B240570E7E40D
:1000F300F510F511F512F513F514751508F516F548
:1001030017F518751902FBFAFDFC7F02FE120003B6
:1001130080C41201DC80BF1201F380BA12020A808C
:10012300B512022180B0E4F510F5117B02FAFDFC53
:080133007F02FE12013B809ED9
:00000001FF
