:030000000200EC0F
:0C00EC00787FE4F6D8FD75810A0200C59B
:1000DC003F065B4F666D7D077F6F777C395E79716C
:10007500E4FDFCC3ED9FEC9E5015E4FBFA0BBB00C1
:0F008500010AEB646E4A70F50DBD00010C80E4BA
:010094002249
:10001600A9057580FFD2A1C2A1EF9000DC93F580FF
:10002600D2A0C2A07580FED2A1C2A17F017E00121D
:1000360000757580FFD2A1C2A1E993F580D2A0C256
:0D004600A07580FDD2A1C2A17F010200754E
:10009500D2AFD2A8D2AAD288D28AD2A9D28C758957
:0800A50001758CFF758AFF2232
:030003000200AD4B
:1000AD00C0E00508E50830E00AD28C758CFF758A32
:0800BD00FF8002C28CD0E0328A
:030013000200F8F0
:0900F800750A00C28C7508003283
:03000B000200539D
:10005300C0E0C0D00509E509B41405750900050A17
:10006300E509B46308C28C758CFF758AFFD0D0D0C4
:02007300E03279
:1000C500120095E50A75F00A84FFE50A75F00A84C1
:0700D500ADF012001680ECF3
:00000001FF
