:0300000002015C9E
:0C015C00787FE4F6D8FD75810C0200628B
:10014C003F065B4F666D7D077F6F777C395E7971FB
:040128007F057E00D1
:10012C00E4FDFCC3ED9FEC9E5015E4FBFA0BBB0009
:0F013C00010AEB646E4A70F50DBD00010C80E402
:01014B002291
:0300030002009860
:10009800C0E0C0D075D000C002C003C004C005C015
:1000A80006C007120128E508C3946350020508D06A
:1000B80007D006D005D004D003D002D0D0D0E0328B
:030013000200C820
:1000C800C0E0C0D075D000C002C003C004C005C0E5
:1000D80006C007120128E508D3940040021508D08D
:1000E80007D006D005D004D003D002D0D0D0E0325B
:03000B000200F8F8
:1000F800C0E0C0D075D000C002C003C004C005C0B5
:1001080006C007120128750800758CFF758AFFD094
:1001180007D006D005D004D003D002D0D0D0E0322A
:100016008C0B8D0C7580FFD2A1C2A1744C2FF5827A
:1000260074013EF583E493F580D2A0C2A07580FEEC
:10003600D2A1C2A11201287580FFD2A1C2A1744C1F
:10004600250CF5827401350BF583E493F580D2A077
:0C005600C2A07580FDD2A1C2A102012C45
:10006200758905D2AFD2A9D28C758CFF758AFFD261
:10007200A8D2AAD288D28AE4F508F50AF509E508D9
:1000820075F00A84FF7E00E50875F00A84ADF07C05
:060092000012001680E8D8
:00000001FF
