:030000000200F506
:0C00F500787FE4F6D8FD75810802000653
:0600B000D2857F327E00C4
:0400B600AB07AA06E4
:1000BA009000007C007D64AF03AE021200E3C3E54A
:1000CA00829FE5839E5011E4FFFE0FBF00010EBE22
:0800DA0002F8BF26F5A380DB4C
:0100E20022FB
:0300030002006098
:10006000C0E0C0F0C083C082C0D075D000C000C066
:1000700002C003C004C005C006C007858008C28056
:10008000D281D282C283D284D2857F287E001200A0
:10009000B630B2FD850880D007D006D005D004D098
:1000A00003D002D000D0D0D082D083D0F0D0E032C4
:10000600D2A8D288D2AAD28AD2AFD280C281D282D4
:10001600C283D2841200B0E4F9B2817F017E00125D
:1000260000B609B906F3D281C2827F047E001200AF
:10003600B6C280D281D282D283C2841200B0E4F9E1
:10004600B2847F017E001200B609B906F3D284C2DB
:0A005600857F047E001200B680B022
:1000E300EF8DF0A4A8F0CF8CF0A428CE8DF0A42E31
:0200F300FE22EB
:00000001FF
